:020000040000FA
:08000000803102288731F02F46
:10000A0008004001980199019A0110309200A0302D
:10001A009300043094007E01CE01C301B80104307C
:10002A00CF000430BA00C501D0013730BB00FF3021
:10003A00C600FF30D1003F30BC00FF30C700FF30A0
:10004A00D200400192111210121292121215941536
:10005A00931793160800F7004A287308803EF500A4
:10006A007508F80060287308C03EF5007508F800A6
:10007A0060287308943EF5007508F8006028730834
:10008A00D43EF5007508F80060287708F500F601F7
:10009A007608003A0319522860287508013A0319AC
:1000AA003228033A03193828013A03193E28073A35
:1000BA0003194428602878088131AA2180317028E0
:1000CA00740886008701010882313C2280310130A0
:1000DA00F5007508F4077408860087010108031DF6
:1000EA007728782865280800720803197D287E2851
:1000FA0083287208031D8228832888287008803183
:10010A0005208031C7287208033E86008701160041
:10011A000104031991289228AF287208033E860029
:10012A008701403FF300413FF400720A86008701CD
:10013A00403FF500413FF6007608803AF700740820
:10014A00803A7702031DAB28730875020318AE289C
:10015A00AF28C7287008F300720886008701720A60
:10016A008400850100080107F400740886008701ED
:10017A0073088100720A86008701013081074131C4
:10018A000318810A08004001AB006C1CCD28CE2858
:10019A00D6282B08FC007C08F80024088F31A727F2
:1001AA0080314001A61BDA28DB28E0282608AA00AD
:1001BA002508A900E228A901AA01A701A801F62891
:1001CA002030F0000030F10040012B08FC007C08D0
:1001DA00F20080317920803101304001A7070030D8
:1001EA00A83D2808803AFC002A08803A7C02031DB0
:1001FA00002929082702031C03290429E5284001AC
:10020A006C180829092911292B08FC007C08F80018
:10021A0024088F31A7278031400124088F315027C5
:10022A008031400129087007A4002A08713DA50001
:10023A000800400194131413941214121313131286
:10024A008E130E138E120E120D130D12C4300032BD
:10025A000032890B2C2900320000C43000320032EF
:10026A00890B332900320000C43000320032890B76
:10027A003A2900320000C43000320032890B412989
:10028A0000320000C43000320032890B48290032A3
:10029A000000C43000320032890B4F2900320000BE
:1002AA00F401F40A40018E130E138E160E160D1366
:1002BA000D128E130E138E160E160D170D12000048
:1002CA0040018E130E138E160E160D130D12C43026
:1002DA0000320032890B6D29003200000130F30030
:1002EA007308F40704307402031C7C297D295729FA
:1002FA0040018E130E138E160E120D130D128E134D
:10030A000E138E160E120D170D12000040018E13D9
:10031A000E138E160E120D130D12C4300032003257
:10032A00890B93290032000028308131AA218131BA
:10033A0010308131AA21813101308131AA218131E4
:10034A000F308131AA2181310800F20040010D13DA
:10035A000D127208F0000730F036890BB1297008C7
:10036A000139F100F10CF10C0E0871067F397106A2
:10037A008E007208F0000630F036890BC129700829
:10038A000139F100F10EF10DF10D0E087106BF39B8
:10039A0071068E007208F0000530F036890BD229FA
:1003AA0070080139F100F10EF10D0E087106DF39FE
:1003BA0071068E007208F0000430F036890BE229CB
:1003CA0070080139F100F10E0E087106EF39710655
:1003DA008E000330890BEF29000040010D17000041
:1003EA0040010D137208F0000330F036890BFA2928
:1003FA0070080139F100F10CF10C0E0871067F3911
:10040A0071068E007208F0000230F036890B0A2A53
:10041A0070080139F100F10EF10DF10D0E087106A7
:10042A00BF3971068E0072360139F000F00EF00DF8
:10043A000E087006DF3970068E0072080139F00066
:10044A00F00E0E087006EF3970068E000330890B25
:10045A002C2A000040010D17000040010D13C43082
:10046A0000320032890B352A003200000800F200FF
:10047A0040010D130D167208F0000730F036890B93
:10048A00432A70080139F100F10CF10C0E087106CB
:10049A007F3971068E007208F0000630F036890B3B
:1004AA00532A70080139F100F10EF10DF10D0E0811
:1004BA007106BF3971068E007208F0000530F036F9
:1004CA00890B642A70080139F100F10EF10D0E084A
:1004DA007106DF3971068E007208F0000430F036BA
:1004EA00890B742A70080139F100F10E0E087106A1
:1004FA00EF3971068E000330890B812A0000400112
:10050A000D17000040010D137208F0000330F03699
:10051A00890B8C2A70080139F100F10CF10C0E08D4
:10052A0071067F3971068E007208F0000230F036CB
:10053A00890B9C2A70080139F100F10EF10DF10DB9
:10054A000E087106BF3971068E0072360139F00045
:10055A00F00EF00D0E087006DF3970068E00720874
:10056A000139F000F00E0E087006EF3970068E00A1
:10057A000330890BBE2A000040010D17000040011C
:10058A000D130000C43000320032890BC82A003231
:10059A00000008004001DD004E0886008701403F48
:1005AA00D000413FD1005008840051088500120054
:1005BA00253A031DE12AE22A882B4E088600870184
:1005CA000130810741310318810A4101A201A301C7
:1005DA004001EC01ED01FF304101A400FF30A5000C
:1005EA0040014E0886008701403FD000413FD100BC
:1005FA0050088400510885001200643A0319062B3A
:10060A00072B182B4E0886008701403FD000413F38
:10061A00D10050088400510885001200693A031D70
:10062A00172B182B532B4E088600870101308107A0
:10063A0041310318810A4F088600870101088400A6
:10064A00850102308107003FD000013FD1005008E8
:10065A00D5005108D600890D893B8909D700D800F1
:10066A00D900DA00DB00DC005508B0005608B100FA
:10067A005708B2005808B3005908B4005A08B50020
:10068A005B08B6005C08B7005D08863186268231B1
:10069A0040013108CF003008CE00AB2B4E0886004F
:1006AA008701403FD000413FD100500884005108E3
:1006BA0085001200253A031D632B642B7D2B4E08FF
:1006CA00860087010130810741310318810A2530EC
:1006DA00F0000030F1005D08D0005008F2008031CF
:1006EA007920823101304001CE000030CF00AB2B9F
:1006FA004E08860087010130810741310318810ABB
:10070A00CE01CF01AB2B4E0886008701403FD000B7
:10071A00413FD10050088400510885000008D200EA
:10072A00D3015208F0005308F1005D08D4005408C0
:10073A00F20080317920823140014E08860087011B
:10074A000130810741310318810A772B0800F20131
:10075A002830860000308700473FF000F01FB62B94
:10076A00B72BD82B4001A809A909AA09AB09AC09DA
:10077A00AD09AE09AF09A80A031DD62BA90A031DA4
:10078A00D62BAA0A031DD62BAB0A031DD62BAC0AFD
:10079A00031DD62BAD0A031DD62BAE0A031DD62B7D
:1007AA00AF0AF201F20A2030860000308700473F84
:1007BA00F000F01FE12BE22B012C4001A009A10956
:1007CA00A209A309A409A509A609A709A00A031D44
:1007DA00012CA10A031D012CA20A031D012CA30A44
:1007EA00031D012CA40A031D012CA50A031D012CBB
:1007FA00A60A031D012CA70A40012008210422048D
:10080A002304240425042604270403190D2C0E2C82
:10081A00612CF101F10A1D2CA035A10DA20DA30D29
:10082A00A40DA50DA60DA70D0130F0007008F10763
:10083A00A71F202C212C112C27082F02031D3F2C27
:10084A0026082E02031D3F2C25082D02031D3F2CCE
:10085A0024082C02031D3F2C23082B02031D3F2CC6
:10086A0022082A02031D3F2C21082902031D3F2CBE
:10087A0020082802031C422C432C532C2008A802CF
:10088A002108A93B2208AA3B2308AB3B2408AC3B1E
:10089A002508AD3B2608AE3B2708AF3BA736A60C7A
:1008AA00A50CA40CA30CA20CA10CA00C0130F10203
:1008BA00031D602C612C212C72080319652C662CEF
:1008CA00842CA809A909AA09AB09AC09AD09AE0982
:1008DA00AF09A80A031D842CA90A031D842CAA0A9D
:1008EA00031D842CAB0A031D842CAC0A031D842C23
:1008FA00AD0A031D842CAE0A031D842CAF0A4001E5
:10090A002808A0002908A1002A08A2002B08A30091
:10091A002C08A4002D08A5002E08A6002F08A70061
:10092A0008008031062084314001181581311E21CA
:10093A0084310C308131AA21843102304001EB002C
:10094A004530EA00A930890BA82CEA0BA82CEB0B3E
:10095A00A82C003240018D1AB32CB42CBC2C0730C1
:10096A004001EA007D30890BB82CEA0BB82C400113
:10097A008D1EC02CC12CE82C6E08023EEE00003001
:10098A006F3DEF001330E6008830E7006F08E9009A
:10099A006E08E800CA308F31832784310230400163
:1009AA00EA006A08F300CA30EB006B08F400013071
:1009BA00803130208431A3304001EA005530890B60
:1009CA00E42CEA0BE42C40018D1FEC2CED2C142DA9
:1009DA006E08FE3EEE00FF306F3DEF001330E6007A
:1009EA008830E7006F08E9006E08E800CA308F31E6
:1009FA008327843102304001EA006A08F300CA30D2
:100A0A00EB006B08F4000130803130208431A330D0
:100A1A004001EA005530890B102DEA0B102D4001D8
:100A2A000C19182D192D222D11304001EA003A30E7
:100A3A00890B1D2DEA0B1D2D000040010C1D262DD2
:100A4A00272D522D01304101A6070030A73D003065
:100A5A004001E6008830E700410127084001E9002B
:100A6A00410126084001E800CA308F3183278431CA
:100A7A0002304001EA006A08F300CA30EB006B0852
:100A8A00F4000130803130208431A3304001EA0083
:100A9A005530890B4E2DEA0B4E2D40018E1D562DD9
:100AAA00572DAF2CFF304101A607FF30A73D00307C
:100ABA004001E6008830E700410127084001E900CB
:100ACA00410126084001E800CA308F31832784316A
:100ADA0002304001EA006A08F300CA30EB006B08F2
:100AEA00F4000130803130208431A3304001EA0023
:100AFA005530890B7E2DEA0B7E2DAF2C80310228D2
:100B0A00F2012030860000308700473FF000F01FD6
:100B1A008F2D902DB12D4001A009A109A209A30989
:100B2A00A409A509A609A709A00A031DAF2DA10AB0
:100B3A00031DAF2DA20A031DAF2DA30A031DAF2D5E
:100B4A00A40A031DAF2DA50A031DAF2DA60A031D76
:100B5A00AF2DA70AF201F20A28308600003087007A
:100B6A00473FF000F01FBA2DBB2DDE2D4001A8092A
:100B7A00A909AA09AB09AC09AD09AE09AF09A80AC6
:100B8A00031DDA2DA90A031DDA2DAA0A031DDA2D7F
:100B9A00AB0A031DDA2DAC0A031DDA2DAD0A031DBB
:100BAA00DA2DAE0A031DDA2DAF0A0130F000700803
:100BBA00F20673308600003087000830F0000030FB
:100BCA001E00F00BE52D4001200821042204230415
:100BDA0024042504260427040319F42DF52D512E87
:100BEA00F101F10A042EA035A10DA20DA30DA40D49
:100BFA00A50DA60DA70D0130F0007008F107A71F7B
:100C0A00072E082EF82DF335F40DF50DF60DF70D18
:100C1A00F80DF90DFA0D27082F02031D2E2E2608AE
:100C2A002E02031D2E2E25082D02031D2E2E24080A
:100C3A002C02031D2E2E23082B02031D2E2E220802
:100C4A002A02031D2E2E21082902031D2E2E2008FA
:100C5A002802031C312E322E432E2008A802210816
:100C6A00A93B2208AA3B2308AB3B2408AC3B250836
:100C7A00AD3B2608AE3B2708AF3B7314A736A60C3C
:100C8A00A50CA40CA30CA20CA10CA00C0130F1021F
:100C9A00031D502E512E082E72080319552E562E5A
:100CAA00742EF309F409F509F609F709F809F9099F
:100CBA00FA09F30A031D742EF40A031D742EF50AA9
:100CCA00031D742EF60A031D742EF70A031D742ED3
:100CDA00F80A031D742EF90A031D742EFA0A730802
:100CEA004001A0007408A1007508A2007608A300BC
:100CFA007708A4007808A5007908A6007A08A70052
:100D0A0008004001BD003008C4003108C50032089F
:100D1A00C6003308C7003408C8003508C9003608B9
:100D2A00CA003708CB004430860000308700473FAE
:100D3A00B800B81BA12EA32E0130A42E003040010A
:100D4A00B900BA013908C2003A08C300420843048C
:100D5A000319B02EB12ECF2EC409C509C609C70979
:100D6A00C809C909CA09CB09C40A031DCF2EC50A75
:100D7A00031DCF2EC60A031DCF2EC70A031DCF2E71
:100D8A00C80A031DCF2EC90A031DCF2ECA0A031D86
:100D9A00CF2ECB0A4101A51BD32ED42ED92EFD303E
:100DAA004001EC05FF30ED0541012508803A40017C
:100DBA00B80080303802031DE52E013041012402BB
:100DCA000318E82EE92EEF2E01304001BE00003054
:100DDA00BF00F72E410125084001BF004101240848
:100DEA004001BE00410123084001C100410122081F
:100DFA004001C00042084304031D042F052F092F98
:100E0A006C1D082F092F0D2FFF30C007FF30C13D81
:100E1A001F30CC000030CD004101C9017C2FFF30CA
:100E2A004001CC07FF30CD3D0A30A000A101A2014C
:100E3A00A301A401A501A601A7014408A800450829
:100E4A00A9004608AA004708AB004808AC004908B0
:100E5A00AD004A08AE004B08AF008331AC2386319F
:100E6A0040012108F4002008F3008F3169278631F8
:100E7A007308303E4001B8004C08AA3E860087013C
:100E8A0038088100FF30BE07FF30BF3DFF30C00782
:100E9A00FF30C13D0A30A000A101A201A301A401B3
:100EAA00A501A601A7014408A8004508A90046080B
:100EBA00AA004708AB004808AC004908AD004A0838
:100ECA00AE004B08AF0085318525863140012008E8
:100EDA00C4002108C5002208C6002308C700240848
:100EEA00C8002508C9002608CA002708CB00400107
:100EFA004D08803AB80080303802031D862F013031
:100F0A004C02031C892F8A2FB72F4001440845043D
:100F1A0046044704480449044A044B04031D962F17
:100F2A00972F142F3F08803AB80080303802031DEB
:100F3A00A02F01303E020318A32FA42F142F400123
:100F4A004108803AB80080303802031DAE2F0130C4
:100F5A004002031CB12FB22FB72F4001EC18B62F55
:100F6A00B72F142F400142084304031DBD2FBE2F83
:100F7A00C22F6C1DC12FC22FDD2FFF30CC07FF30CF
:100F8A00CD3D42084304031DCB2FCC2FD12F2B304C
:100F9A00BB000030BC00D52F2D30BB000030BC0098
:100FAA003B08B8004C08AA3E860087013808810031
:100FBA004C08AA3EB8003808A4004108A600400818
:100FCA00A5003D088031C820863140012508B100BE
:100FDA002408B00008004001EC01ED01EE01EF0128
:100FEA00A0308400003085003E308F314A27873197
:100FFA0040018431962C50346534723473346F3422
:10100A006E3461347334643465346E3474347234D7
:10101A006F343A342034253464340034503465341F
:10102A00723473346F346E34613473346D346134B2
:0C103A0078343A34203425346434003417
:101E9400640080010131890B4B2F0034F400740875
:101EA400F2007208F3005A2F0130F2007208F407AE
:101EB4007408860087010108031D612F622F562FC5
:101EC40073087402F000F101F01BF10308007408B8
:101ED400803AF50080307502031D722F01307302C1
:101EE4000318752F762F822F7309F5007409F600F5
:101EF400F50A0319F60A7508F3007608F400822F30
:101F040008004101E1006830FD007D08E00061083F
:101F1400FD007D08E200E301E401E501E601400182
:101F24006708DF006608DE00E030FD007D08E000A1
:101F3400E2308F31CF278F31410163086107FD0003
:101F44007D0886008701810108004001A300A101EA
:101F5400A201BF2F2008F900FA017908F0007A08DD
:101F6400F1007808FB007B08F200803179208F3182
:101F740001304001A1070030A23D21082307F900E8
:101F84007908860087010108FA007A08A000200871
:101F9400031DCD2FCE2FAC2F08004001E3005F08B6
:101FA400E5005E08E4004101A001A101ED2F6430C9
:101FB400E1006108CE006008E2006208CF00630817
:101FC4008231CF228F3140014E084101A0074001E8
:101FD4004F084101A13D4001640884006508850063
:101FE4001200031DF62FF72FD92F410121084001BC
:0C1FF400DF00410120084001DE00080071
:020000040001F9
:04000E00ED3FE73F9C
:04001400FF3FFF3F6C
:00000001FF
