:020000040000FA
:10000000803102288731F22F0800031040013C0D97
:100010003D0DBE003E08C4004408031D10281128F1
:100020001A280030BD000030BC000030BB0000309A
:10003000BA0079283A08BE003B08BF003C08C0005F
:100040003D08C1001F30C136C00CBF0CBE0C890B6F
:1000500023283E08C2004208C300BC17FF30BA057F
:10006000FF30BB05FF30BC050030BD059630C40233
:10007000C41F3B283C2854284408803A973E031864
:1000800042284328442811280130BD36BC0CBB0C43
:10009000BA0C890B45280130BE003E08C407031D79
:1000A000522853284428692820304402031C592828
:1000B0005A28642811280130BA35BB0DBC0DBD0D7E
:1000C000890B5C280130C4024408031D6828692894
:1000D0005B28430803196D286E287928BA09BB09E3
:1000E000BC09BD09BA0A0319BB0A0319BC0A0319E2
:1000F000BD0A08004001DD004E0886008701403F30
:10010000D000413FD1005008840051088500120002
:10011000253A031D8C288D2831294E088600870139
:100120000130810741310318810A4101A201A30175
:10013000A601A701FF30A400FF30A50040014E0832
:1001400086008701403FD000413FD1005008840025
:10015000510885001200643A0319AF28B028C1285D
:100160004E0886008701403FD000413FD100500833
:100170008400510885001200693A031DC028C12877
:10018000FC284E08860087010130810741310318A1
:10019000810A4F088600870101088400850102302A
:1001A0008107003FD000013FD1005008D500510821
:1001B000D600890D893B8909D700D800D900DA001B
:1001C000DB00DC005508B0005608B1005708B2004B
:1001D0005808B3005908B4005A08B5005B08B600C7
:1001E0005C08B7005D0884312D248031400131085E
:1001F000CF003008CE0054294E0886008701403FCA
:10020000D000413FD1005008840051088500120001
:10021000253A031D0C290D2926294E088600870141
:100220000130810741310318810A2530F000003088
:10023000F1005D08D0005008F2008C31FB248031C1
:1002400001304001CE000030CF0054294E08860016
:1002500087010130810741310318810ACE01CF01A6
:1002600054294E0886008701403FD000413FD1000D
:1002700050088400510885000008D200D3015208BC
:10028000F0005308F1005D08D4005408F2008C31EE
:10029000FB24803140014E08860087010130810730
:1002A00041310318810A20290800F2012830860014
:1002B00000308700473FF000F01F5F296029812947
:1002C0004001A809A909AA09AB09AC09AD09AE0901
:1002D000AF09A80A031D7F29A90A031D7F29AA0ABD
:1002E000031D7F29AB0A031D7F29AC0A031D7F294B
:1002F000AD0A031D7F29AE0A031D7F29AF0AF20153
:10030000F20A2030860000308700473FF000F01FDF
:100310008A298B29AA294001A009A109A209A309B8
:10032000A409A509A609A709A00A031DAA29A10ACB
:10033000031DAA29A20A031DAA29A30A031DAA298B
:10034000A40A031DAA29A50A031DAA29A60A031D9A
:10035000AA29A70A40012008210422042304240416
:100360002504260427040319B629B7290A2AF1010E
:10037000F10AC629A035A10DA20DA30DA40DA50D4E
:10038000A60DA70D0130F0007008F107A71FC929BD
:10039000CA29BA2927082F02031DE82926082E0298
:1003A000031DE82925082D02031DE82924082C0235
:1003B000031DE82923082B02031DE82922082A022D
:1003C000031DE82921082902031DE8292008280225
:1003D000031CEB29EC29FC292008A8022108A93BD1
:1003E0002208AA3B2308AB3B2408AC3B2508AD3BC5
:1003F0002608AE3B2708AF3BA736A60CA50CA40CDD
:10040000A30CA20CA10CA00C0130F102031D092ABF
:100410000A2ACA29720803190E2A0F2A2D2AA809A6
:10042000A909AA09AB09AC09AD09AE09AF09A80A27
:10043000031D2D2AA90A031D2D2AAA0A031D2D2AF0
:10044000AB0A031D2D2AAC0A031D2D2AAD0A031D7C
:100450002D2AAE0A031D2D2AAF0A40012808A0004C
:100460002908A1002A08A2002B08A3002C08A40038
:100470002D08A5002E08A6002F08A70008008B3124
:10048000442382318B31332382318D31A325823154
:1004900001308E312F2682310C308E312F26823161
:1004A0008B31382382318C317A24823101308E3184
:1004B0002F26823140010E185E2A5F2A742A6D08A9
:1004C000023EED0000306E3DEE00A3304001EC0036
:1004D0005530890B692AEC0B692A8B31D52382317F
:1004E0008B3138238231A22A8E18772A782A7F2AE4
:1004F0006D08FE3EED00FF306E3DEE00652A8E1960
:10050000822A832A962A41012A08013EAA00003045
:100510002B3DAB00A3304001EC005530890B8E2AF7
:10052000EC0B8E2A8C3121248231702A0E19992AE3
:100530009A2AA22A41012A08FF3EAA00FF302B3D39
:10054000AB008A2A40016D08F0006E08F100F2014C
:10055000F30100308F315427823173084001A70026
:100560007208A6007108A5007008A4003F30A3001F
:100570000030A2000030A1000030A00085319B2592
:10058000823140012308BD002208BC002108BB00C5
:100590002008BA0080310520823140013B0841012A
:1005A000A90040013A084101A80029082B02031DB7
:1005B000DB2A28082A020318DE2ADF2AED2A8B31DB
:1005C0003823823140019916A3304001EC005530A8
:1005D000890BE82AEC0BE82A5A2A40016E084101EF
:1005E0002B02031DF72A40016D0841012A0203185E
:1005F000FA2AFB2A012B8B3138238231400118154E
:10060000E42A2B0840016E02031D0A2B41012A082F
:1006100040016D0203180D2B0E2B152B8B31382347
:100620008231400198149917E42A41012B084001B6
:100630006E06031D1F2B41012A0840016D06031D94
:10064000222B232B292B8B31382382314001981404
:10065000E42A5A2A80310228F20120308600003034
:100660008700473FF000F01F362B372B582B4001F7
:10067000A009A109A209A309A409A509A609A70916
:10068000A00A031D562BA10A031D562BA20A031D07
:10069000562BA30A031D562BA40A031D562BA50A8D
:1006A000031D562BA60A031D562BA70AF201F20AB8
:1006B0002830860000308700473FF000F01F612B94
:1006C000622B852B4001A809A909AA09AB09AC092D
:1006D000AD09AE09AF09A80A031D812BA90A031DA4
:1006E000812BAA0A031D812BAB0A031D812BAC0AA7
:1006F000031D812BAD0A031D812BAE0A031D812B27
:10070000AF0A0130F0007008F20673308600003046
:1007100087000830F00000301E00F00B8C2B4001E9
:100720002008210422042304240425042604270489
:1007300003199B2B9C2BF82BF101F10AAB2BA03555
:10074000A10DA20DA30DA40DA50DA60DA70D0130A1
:10075000F0007008F107A71FAE2BAF2B9F2BF335CE
:10076000F40DF50DF60DF70DF80DF90DFA0D27083E
:100770002F02031DD52B26082E02031DD52B25087D
:100780002D02031DD52B24082C02031DD52B230875
:100790002B02031DD52B22082A02031DD52B21086D
:1007A0002902031DD52B20082802031CD82BD92B86
:1007B000EA2B2008A8022108A93B2208AA3B23080B
:1007C000AB3B2408AC3B2508AD3B2608AE3B2708D5
:1007D000AF3B7314A736A60CA50CA40CA30CA20C5B
:1007E000A10CA00C0130F102031DF72BF82BAF2B4D
:1007F00072080319FC2BFD2B1B2CF309F409F509D6
:10080000F609F709F809F909FA09F30A031D1B2C7F
:10081000F40A031D1B2CF50A031D1B2CF60A031DED
:100820001B2CF70A031D1B2CF80A031D1B2CF90AAD
:10083000031D1B2CFA0A73084001A0007408A100D4
:100840007508A2007608A3007708A4007808A50020
:100850007908A6007A08A70008004001BD0030080A
:10086000C4003108C5003208C6003308C700340888
:10087000C8003508C9003608CA003708CB00443024
:10088000860000308700473FB800B81B482C4A2C30
:1008900001304B2C00304001B900BA013908C200C8
:1008A0003A08C300420843040319572C582C762CED
:1008B000C409C509C609C709C809C909CA09CB09B4
:1008C000C40A031D762CC50A031D762CC60A031D17
:1008D000762CC70A031D762CC80A031D762CC90A7C
:1008E000031D762CCA0A031D762CCB0A4101A51BD9
:1008F0007A2C7B2C7F2CFD30A605FF30A705250820
:10090000803A4001B80080303802031D8A2C013043
:100910004101240203188D2C8E2C942C01304001AF
:10092000BE000030BF009C2C410125084001BF00E3
:10093000410124084001BE00410123084001C100DB
:10094000410122084001C00042084304031DA92CB4
:10095000AA2CAF2C4101261DAE2CAF2CB42CFF309D
:100960004001C007FF30C13D1F304001CC000030C6
:10097000CD004101CB01242DFF304001CC07FF30D9
:10098000CD3D0A30A000A101A201A301A401A5014F
:10099000A601A7014408A8004508A9004608AA0026
:1009A0004708AB004808AC004908AD004A08AE0053
:1009B0004B08AF0081315521843140012108F400FA
:1009C0002008F3008B31742384317308303E4001DA
:1009D000B8004C08AC3E8600870138088100FF3023
:1009E000BE07FF30BF3DFF30C007FF30C13D0A30BA
:1009F000A000A101A201A301A401A501A601A701D4
:100A00004408A8004508A9004608AA004708AB000A
:100A10004808AC004908AD004A08AE004B08AF00DA
:100A200083312C23843140012008C4002108C500F3
:100A30002208C6002308C7002408C8002508C900EA
:100A40002608CA002708CB0040014D08803AB800AC
:100A500080303802031D2E2D01304C02031C312D35
:100A6000322D5F2D400144084504460447044804E4
:100A700049044A044B04031D3E2D3F2DBC2C3F0866
:100A8000803AB80080303802031D482D01303E0204
:100A900003184B2D4C2DBC2C40014108803AB80066
:100AA00080303802031D562D01304002031C592DA1
:100AB0005A2D5F2D4101A6185E2D5F2DBC2C4001E3
:100AC00042084304031D652D662D6B2D4101261D33
:100AD0006A2D6B2D872DFF304001CC07FF30CD3DB7
:100AE00042084304031D752D762D7B2D2B30BB0052
:100AF0000030BC007F2D2D30BB000030BC003B0817
:100B0000B8004C08AC3E86008701380881004001DF
:100B10004C08AC3EB8003808A4004108A6004008C4
:100B2000A5003D088D314A25843140012508B100DA
:100B30002408B0000800400123088039A8002808D4
:100B4000AD002335A8002808B300A21FA82DA92DA9
:100B5000AA2D331433080319AE2DAF2DBE2D330A41
:100B6000031DB32DB42DBC2D0030A3000030A20016
:100B70000030A1000030A000A217C62D0030A30055
:100B80000030A2000030A1000030A000270880390A
:100B9000A8002808AD062735A8002808B200A61F1F
:100BA000D22DD32DD42D321432080319D82DD92D9E
:100BB000E82D320A031DDD2DDE2DE62D0030A700C5
:100BC0000030A6000030A5000030A400A617F02DCC
:100BD0000030A7000030A6000030A5000030A400BF
:100BE00032080319F42DF52DFA2D3308031DF92DC4
:100BF000FA2D032E0030A3000030A2000030A10027
:100C00000030A000F12F2008A8002808F0002608D6
:100C10008B318E23853171084001B9007008B8000E
:100C20003808A800A901AA01AB012B08B1002A08C5
:100C3000B0002908AF002808AE003908A800A901B3
:100C4000AA01AB012B08B7002A08B6002908B50095
:100C50002808B4002108A8002808F00025088B31D6
:100C60008E23853171084001B9007008B80038083A
:100C7000A800A901AA01AB012808AE072908AF3DC9
:100C80002A08B03D2B08B13D3908A800A901AA01E6
:100C9000AB012808B4072908B53D2A08B63D2B0842
:100CA000B73D2208A8002808F00024088B318E23C5
:100CB000853171084001B9007008B8003808A800F3
:100CC000A901AA01AB012808AE072908AF3D2A08EF
:100CD000B03D2B08B13D3908A800A901AA01AB011C
:100CE0002808B4072908B53D2A08B63D2B08B73DAA
:100CF0000830AE35AF0DB00DB10D890B792E21083E
:100D0000A8002808F00024088B318E238531710853
:100D10004001B9007008B8003808AE073908AF3D87
:100D20000030B03DB13D2008A8002808F00025089B
:100D30008B318E23853171084001B9007008B800ED
:100D40003808AE073908AF3D0030B03DB13D08303E
:100D5000AE35AF0DB00DB10D890BA82E2008A8003F
:100D60002808F00024088B318E238531710840015A
:100D7000B9007008B8003808AE073908AF3D003038
:100D8000B03DB13D2108A8002808F00026088B31AD
:100D90008E23853171084001B9007008B800380809
:100DA000B4073908B53D0030B63DB73D2208A8006C
:100DB0002808F00025088B318E2385317108400109
:100DC000B9007008B8003808B4073908B53D0030DC
:100DD000B63DB73D2208A8002808F00026088B3150
:100DE0008E23853171084001B9007008B8003808B9
:100DF000A8003908A900AA01AB010830A835A90D3F
:100E0000AA0DAB0D890BFE2E2808B4072908B53DA5
:100E10002A08B63D2B08B73D2E08A8002F08A900C8
:100E20003008AA003108AB001830AB36AA0CA90C68
:100E3000A80C890B152F2808B4072908B53D2A08E6
:100E4000B63D2B08B73D0830AE35AF0DB00DB10D36
:100E5000890B242F33083207A800A901A90D2808FF
:100E6000823EB800FF30293DB9004D2F0130B43526
:100E7000B50DB60DB70D890B372FB11F402F412F80
:100E8000422F34140130AE35AF0DB00DB10D890BCA
:100E9000432FFF30B807FF30B93DB61F502F512FF9
:100EA000362FB201B11F552F562F722FFF302E054E
:100EB000A800FF302F05A900FF303005AA007F30C1
:100EC0003105AB002B082A04290428040319692FD3
:100ED0006A2F6D2FB201B20A722F341C702F712F3E
:100EE000722F6A2F32080319762F772F9F2F013028
:100EF000B4070030B53D0030B63D0030B73D371C7B
:100F0000822F832F9F2F3408A8003508A9003608A8
:100F1000AA003708AB000130AC00AB37AA0CA90C13
:100F2000A80CAC0B8D2F2B08B7002A08B600290897
:100F3000B5002808B4000130B8070030B93D3908C1
:100F4000803AA80080302802031DA82FFF30380205
:100F5000031CAB2FAC2FB62F7F304001B700803081
:100F6000B6000030B5000030B400E52F400139086C
:100F7000803AA80080302802031DC02F01303802BB
:100F80000318C32FC42FCF2F00304001B70000300B
:100F9000B6000030B5000030B400AD01E52F4001CF
:100FA0003808A8002808B300FF30B405FF30B505A5
:100FB0007F30B6050030B705331CDF2FE02FE12F5F
:100FC000B6173336A8002808B7002D08A80028084F
:100FD000B7043708A3003608A2003508A10034087A
:100FE000A00008004001ED01EE01A03084000030B7
:100FF000850040308B313E238731400182313F2ACA
:10100000633461346E347434693464346134643408
:1010100020346D346134783469346D346134003493
:1010200063346134703461346334693464346134FA
:1010300064343A3420342534643400344134633425
:101040007434753461346C343A3420342534643467
:10105000003464346534663469346E346134203469
:061060006C346134003421
:10166600510191019301920108004001991218114C
:10167600981099130800640080010131890B3F2BF3
:1016860000344001980199019A01920193010F30AB
:1016960094007E01CE01B8010430BA00D001373083
:1016A600BB00FF30D1003F30BC00FF30D200080045
:1016B600F4007408F2007208F300652B0130F200A2
:1016C6007208F4077408860087010108031D6C2B55
:1016D6006D2B612B73087402F000F101F01BF1030E
:1016E60008007408803AF50080307502031D7D2BD2
:1016F600013073020318802B812B8D2B7309F500A3
:101706007409F600F50A0319F60A7508F300760857
:10171600F4008D2B0800F800F401F5017008F200C2
:10172600F3017208F6007308F700781C9B2B9C2BBC
:10173600A02B7608F4077708F53D0130F635F70D4E
:10174600890BA12B0310F80C7808031DAB2BAC2BCF
:10175600982B7508F1007408F00008004101E300B9
:101766006830FD007D08E2006308FD007D08E400A6
:10177600E501E601E701E80140016708DF006608C8
:10178600DE00E230FD007D08E000E4308C314924C3
:101796008B31410165086307FD007D0886008701DE
:1017A6008101080001308E312F268B311030400127
:1017B600E6008830E7006E08E9006D08E800CC30E6
:1017C6008B31B1238B31F301CC304001EA006A083A
:1017D600F40002308C31B2248B31A3304001EA0090
:1017E6005530890BF42BEA0BF42B08004001A300BB
:1017F600A101A201112C2008F900FA017908F000D4
:101806007A08F1007808FB007B08F2008C31FB2493
:101816008B3101304001A1070030A23D210823078A
:10182600F9007908860087010108FA007A08A00005
:101836002008031D1F2C202CFE2B080001308E31A2
:101846002F268C311E304001E6008830E70041012A
:101856002B084001E90041012A084001E800CC308C
:101866008B31B1238C31F301CC304001EA006A0898
:10187600F40001308C31B2248C31A3304001EA00EF
:101886005530890B442CEA0B442C08004001E30038
:101896005F08E5005E08E4004101A001A101672C94
:1018A6006430E1006108CE006008E2006208CF0003
:1018B600630880317A208C3140014E084101A0072F
:1018C60040014F084101A13D4001640884006508BC
:1018D60085001200031D702C712C532C4101210828
:1018E6004001DF00410120084001DE000800013010
:1018F6008E312F268C3129304001E6008830E700F2
:10190600CC308B31B1238C31F301CC304001EA006D
:101916006A08F40001308C31B2248C310030400169
:10192600E6008830E700CC308B31B1238C31F301EF
:10193600CC304001EA006A08F40002308C31B2244F
:101946008C3107304001EB005830EA005930890BE2
:10195600AA2CEA0BAA2CEB0BAA2C00320800F700E3
:10196600CC2C7308803EF5007508F800E22C73084D
:10197600C03EF5007508F800E22C7308943EF500A9
:101986007508F800E22C7308D43EF5007508F800D7
:10199600E22C7708F500F6017608003A0319D42CF4
:1019A600E22C7508013A0319B42C033A0319BA2C30
:1019B600013A0319C02C073A0319C62CE22C780801
:1019C6008E312F268C31F22C74088600870101088F
:1019D6008E31C1268C310130F5007508F407740884
:1019E600860087010108031DF92CFA2CE72C080054
:1019F60072080319FF2C002D052D7208031D042DF6
:101A0600052D0A2D7008803104208C31492D72086D
:101A1600033E86008701160001040319132D142DB9
:101A2600312D7208033E86008701403FF300413F97
:101A3600F400720A86008701403FF500413FF60038
:101A46007608803AF7007408803A7702031D2D2D38
:101A5600730875020318302D312D492D7008F300D7
:101A6600720886008701720A840085010008010752
:101A7600F40074088600870173088100720A8600E4
:101A860087010130810741310318810A08004001AE
:101A9600AB004101261C502D512D5A2D40012B081B
:101AA600FC007C08F80024088B31F9238D314001B5
:101AB600A61B5E2D5F2D642D2608AA002508A90009
:101AC600662DA901AA01A701A8017A2D2030F000F0
:101AD6000030F10040012B08FC007C08F2008C313C
:101AE600FB248D3101304001A7070030A83D2808AE
:101AF600803AFC002A08803A7C02031D842D2908BE
:101B06002702031C872D882D692D410126188C2D4F
:101B16008D2D962D40012B08FC007C08F80024082A
:101B26008B31F9238D31400124088B315B238D31B4
:101B3600400129087007A4002A08713DA500080085
:101B460040019413141394121412131313128E13C8
:101B56000E138E120E120D130D12C4300032003207
:101B6600890BB12D00320000C43000320032890BDF
:101B7600B82D00320000C43000320032890BBF2D70
:101B860000320000C43000320032890BC62D00320C
:101B96000000C43000320032890BCD2D0032000027
:101BA600C43000320032890BD42D00320000F4011B
:101BB600F40A40018E130E138E160E160D130D1217
:101BC6008E130E138E160E160D170D120000400101
:101BD6008E130E138E160E160D130D12C430003210
:101BE6000032890BF22D003200000130F300730839
:101BF600F40704307402031C012E022EDC2D400172
:101C06008E130E138E160E120D130D128E130E1347
:101C16008E160E120D170D12000040018E130E13B4
:101C26008E160E120D130D12C43000320032890BBF
:101C3600182E0032000028308E312F268D311030BC
:101C46008E312F268D3101308E312F268D310F307A
:101C56008E312F268D310800F20040010D130D1232
:101C66007208F0000730F036890B362E70080139FD
:101C7600F100F10CF10C0E0871067F3971068E0029
:101C86007208F0000630F036890B462E70080139CE
:101C9600F100F10EF10DF10D0E087106BF39710656
:101CA6008E007208F0000530F036890B572E70084A
:101CB6000139F100F10EF10D0E087106DF397106DA
:101CC6008E007208F0000430F036890B672E70081B
:101CD6000139F100F10E0E087106EF3971068E001A
:101CE6000330890B742E000040010D1700004001DF
:101CF6000D137208F0000330F036890B7F2E700842
:101D06000139F100F10CF10C0E0871067F397106EC
:101D16008E007208F0000230F036890B8F2E7008A4
:101D26000139F100F10EF10DF10D0E087106BF3902
:101D360071068E0072360139F000F00EF00D0E08B5
:101D46007006DF3970068E0072080139F000F00E59
:101D56000E087006EF3970068E000330890BB12E1F
:101D6600000040010D17000040010D13C430003281
:101D76000032890BBA2E003200000800F200400142
:101D86000D130D167208F0000730F036890BC82EB9
:101D960070080139F100F10CF10C0E0871067F395B
:101DA60071068E007208F0000630F036890BD82EC8
:101DB60070080139F100F10EF10DF10D0E087106F2
:101DC600BF3971068E007208F0000530F036890BB7
:101DD600E92E70080139F100F10EF10D0E087106B9
:101DE600DF3971068E007208F0000430F036890B78
:101DF600F92E70080139F100F10E0E087106EF395F
:101E060071068E000330890B062F000040010D1766
:101E1600000040010D137208F0000330F036890B04
:101E2600112F70080139F100F10CF10C0E08710642
:101E36007F3971068E007208F0000230F036890B89
:101E4600212F70080139F100F10EF10DF10D0E0888
:101E56007106BF3971068E0072360139F000F00E38
:101E6600F00D0E087006DF3970068E007208013913
:101E7600F000F00E0E087006EF3970068E00033083
:101E8600890B432F000040010D17000040010D1380
:101E96000000C43000320032890B4D2F00320000A2
:101EA6000800F80078080319592F5A2F6E2FF31FD0
:101EB6005D2F5E2F6E2F7009FA007109FB00720903
:101EC600FC007309FD00FA0A0319FB0A0319FC0A50
:101ED6000319FD0A762F7308FD007208FC007108CD
:101EE600FB007008FA007308720471047004031D85
:101EF6007D2F7E2F872F0030F3000030F200003058
:101F0600F1000030F000FF2F9630F4007408F9005D
:101F1600972F0130F4007408F9070130FD36FC0CE8
:101F2600FB0CFA0C890B912FFE307D05031D9C2FAF
:101F36009D2F8C2FB12F0130F4007408F907013062
:101F4600FA070030FB3D0030FC3D0030FD3D01301E
:101F5600FD36FC0CFB0CFA0C890BAB2FFF307D0514
:101F6600031DB62FB72F9E2FC12F0130F902013066
:101F7600FA35FB0DFC0DFD0D890BBB2FFC1BC42F89
:101F8600C52FCB2F023079020318CA2FCB2FB82FBB
:101F96007918CE2FCF2FD72FFF30FA05FF30FB054C
:101FA6007F30FC05FF30FD050310F90C7908F400BD
:101FB600F501F601F7011830F435F50DF60DF70DBC
:101FC600890BDF2F7408FA047508FB047608FC04F5
:101FD6007708FD0478080319F12FF22FF72FF31F66
:101FE600F52FF62FF72FFD177D08F3007C08F2007A
:0A1FF6007B08F1007A08F0000800F3
:020000040001F9
:04000E00ED3FE73F9C
:04001400FF3FFF3F6C
:00000001FF
